{
  "_format": "hh-sol-artifact-1",
  "contractName": "MultiSig",
  "sourceName": "contracts/MultiSig.sol",
  "abi": [
    {
      "inputs": [
        {
          "internalType": "address[]",
          "name": "_owners",
          "type": "address[]"
        },
        {
          "internalType": "uint256",
          "name": "_numConfirmationsRequired",
          "type": "uint256"
        }
      ],
      "stateMutability": "nonpayable",
      "type": "constructor"
    },
    {
      "anonymous": false,
      "inputs": [
        {
          "indexed": false,
          "internalType": "uint256",
          "name": "transactionId",
          "type": "uint256"
        }
      ],
      "name": "TransactionConfirmed",
      "type": "event"
    },
    {
      "anonymous": false,
      "inputs": [
        {
          "indexed": false,
          "internalType": "uint256",
          "name": "transactionId",
          "type": "uint256"
        }
      ],
      "name": "TransactionExecuted",
      "type": "event"
    },
    {
      "anonymous": false,
      "inputs": [
        {
          "indexed": false,
          "internalType": "uint256",
          "name": "transactionId",
          "type": "uint256"
        },
        {
          "indexed": false,
          "internalType": "address",
          "name": "sender",
          "type": "address"
        },
        {
          "indexed": false,
          "internalType": "address",
          "name": "receiver",
          "type": "address"
        },
        {
          "indexed": false,
          "internalType": "uint256",
          "name": "amount",
          "type": "uint256"
        }
      ],
      "name": "TransactionSubmitted",
      "type": "event"
    },
    {
      "inputs": [
        {
          "internalType": "uint256",
          "name": "_transactionId",
          "type": "uint256"
        }
      ],
      "name": "confirmTransaction",
      "outputs": [],
      "stateMutability": "nonpayable",
      "type": "function"
    },
    {
      "inputs": [
        {
          "internalType": "uint256",
          "name": "_transactionId",
          "type": "uint256"
        }
      ],
      "name": "executeTransaction",
      "outputs": [],
      "stateMutability": "payable",
      "type": "function"
    },
    {
      "inputs": [],
      "name": "numConfirmationsRequired",
      "outputs": [
        {
          "internalType": "uint256",
          "name": "",
          "type": "uint256"
        }
      ],
      "stateMutability": "view",
      "type": "function"
    },
    {
      "inputs": [
        {
          "internalType": "uint256",
          "name": "",
          "type": "uint256"
        }
      ],
      "name": "owners",
      "outputs": [
        {
          "internalType": "address",
          "name": "",
          "type": "address"
        }
      ],
      "stateMutability": "view",
      "type": "function"
    },
    {
      "inputs": [
        {
          "internalType": "address",
          "name": "_to",
          "type": "address"
        }
      ],
      "name": "submitTransaction",
      "outputs": [],
      "stateMutability": "payable",
      "type": "function"
    },
    {
      "inputs": [
        {
          "internalType": "uint256",
          "name": "",
          "type": "uint256"
        }
      ],
      "name": "transactions",
      "outputs": [
        {
          "internalType": "address",
          "name": "to",
          "type": "address"
        },
        {
          "internalType": "uint256",
          "name": "value",
          "type": "uint256"
        },
        {
          "internalType": "bool",
          "name": "executed",
          "type": "bool"
        }
      ],
      "stateMutability": "view",
      "type": "function"
    }
  ],
  "bytecode": "0x60806040523480156200001157600080fd5b506040516200142f3803806200142f83398181016040528101906200003791906200043f565b60018251116200007e576040517f08c379a000000000000000000000000000000000000000000000000000000000815260040162000075906200052c565b60405180910390fd5b600081118015620000925750815160015411155b620000d4576040517f08c379a0000000000000000000000000000000000000000000000000000000008152600401620000cb90620005c4565b60405180910390fd5b60005b82518110156200020657600073ffffffffffffffffffffffffffffffffffffffff168382815181106200010f576200010e620005e6565b5b602002602001015173ffffffffffffffffffffffffffffffffffffffff160362000170576040517f08c379a0000000000000000000000000000000000000000000000000000000008152600401620001679062000665565b60405180910390fd5b6000838281518110620001885762000187620005e6565b5b60200260200101519080600181540180825580915050600190039060005260206000200160009091909190916101000a81548173ffffffffffffffffffffffffffffffffffffffff021916908373ffffffffffffffffffffffffffffffffffffffff1602179055508080620001fd90620006b6565b915050620000d7565b5080600181905550505062000703565b6000604051905090565b600080fd5b600080fd5b600080fd5b6000601f19601f8301169050919050565b7f4e487b7100000000000000000000000000000000000000000000000000000000600052604160045260246000fd5b6200027a826200022f565b810181811067ffffffffffffffff821117156200029c576200029b62000240565b5b80604052505050565b6000620002b162000216565b9050620002bf82826200026f565b919050565b600067ffffffffffffffff821115620002e257620002e162000240565b5b602082029050602081019050919050565b600080fd5b600073ffffffffffffffffffffffffffffffffffffffff82169050919050565b60006200032582620002f8565b9050919050565b620003378162000318565b81146200034357600080fd5b50565b60008151905062000357816200032c565b92915050565b6000620003746200036e84620002c4565b620002a5565b905080838252602082019050602084028301858111156200039a5762000399620002f3565b5b835b81811015620003c75780620003b2888262000346565b8452602084019350506020810190506200039c565b5050509392505050565b600082601f830112620003e957620003e86200022a565b5b8151620003fb8482602086016200035d565b91505092915050565b6000819050919050565b620004198162000404565b81146200042557600080fd5b50565b60008151905062000439816200040e565b92915050565b6000806040838503121562000459576200045862000220565b5b600083015167ffffffffffffffff8111156200047a576200047962000225565b5b6200048885828601620003d1565b92505060206200049b8582860162000428565b9150509250929050565b600082825260208201905092915050565b7f4f6e77657273205265717569726564204d75737420426520477265617465722060008201527f7468616e20310000000000000000000000000000000000000000000000000000602082015250565b600062000514602683620004a5565b91506200052182620004b6565b604082019050919050565b60006020820190508181036000830152620005478162000505565b9050919050565b7f4e756d206f6620636f6e6669726d6174696f6e7320617265206e6f7420696e2060008201527f73796e63207769746820746865206e756d626572206f66206f776e6572730000602082015250565b6000620005ac603e83620004a5565b9150620005b9826200054e565b604082019050919050565b60006020820190508181036000830152620005df816200059d565b9050919050565b7f4e487b7100000000000000000000000000000000000000000000000000000000600052603260045260246000fd5b7f496e76616c6964204f776e657200000000000000000000000000000000000000600082015250565b60006200064d600d83620004a5565b91506200065a8262000615565b602082019050919050565b6000602082019050818103600083015262000680816200063e565b9050919050565b7f4e487b7100000000000000000000000000000000000000000000000000000000600052601160045260246000fd5b6000620006c38262000404565b91507fffffffffffffffffffffffffffffffffffffffffffffffffffffffffffffffff8203620006f857620006f762000687565b5b600182019050919050565b610d1c80620007136000396000f3fe6080604052600436106100555760003560e01c8063025e7c271461005a57806366d651db146100975780639ace38c2146100b3578063c01a8c84146100f2578063d0549b851461011b578063ee22610b14610146575b600080fd5b34801561006657600080fd5b50610081600480360381019061007c91906107e9565b610162565b60405161008e9190610857565b60405180910390f35b6100b160048036038101906100ac919061089e565b6101a1565b005b3480156100bf57600080fd5b506100da60048036038101906100d591906107e9565b610370565b6040516100e9939291906108f5565b60405180910390f35b3480156100fe57600080fd5b50610119600480360381019061011491906107e9565b6103d7565b005b34801561012757600080fd5b5061013061055f565b60405161013d919061092c565b60405180910390f35b610160600480360381019061015b91906107e9565b610565565b005b6000818154811061017257600080fd5b906000526020600020016000915054906101000a900473ffffffffffffffffffffffffffffffffffffffff1681565b600073ffffffffffffffffffffffffffffffffffffffff168173ffffffffffffffffffffffffffffffffffffffff1603610210576040517f08c379a0000000000000000000000000000000000000000000000000000000008152600401610207906109a4565b60405180910390fd5b60003411610253576040517f08c379a000000000000000000000000000000000000000000000000000000000815260040161024a90610a36565b60405180910390fd5b60006003805490509050600360405180606001604052808473ffffffffffffffffffffffffffffffffffffffff16815260200134815260200160001515815250908060018154018082558091505060019003906000526020600020906003020160009091909190915060008201518160000160006101000a81548173ffffffffffffffffffffffffffffffffffffffff021916908373ffffffffffffffffffffffffffffffffffffffff1602179055506020820151816001015560408201518160020160006101000a81548160ff02191690831515021790555050507f753dcda37efe0bc3675e04e24d1fb08b70681f14675eed4b6e7978495caf2ca0813384346040516103649493929190610a56565b60405180910390a15050565b6003818154811061038057600080fd5b90600052602060002090600302016000915090508060000160009054906101000a900473ffffffffffffffffffffffffffffffffffffffff16908060010154908060020160009054906101000a900460ff16905083565b600380549050811061041e576040517f08c379a000000000000000000000000000000000000000000000000000000000815260040161041590610ae7565b60405180910390fd5b6002600082815260200190815260200160002060003373ffffffffffffffffffffffffffffffffffffffff1673ffffffffffffffffffffffffffffffffffffffff16815260200190815260200160002060009054906101000a900460ff16156104bc576040517f08c379a00000000000000000000000000000000000000000000000000000000081526004016104b390610b79565b60405180910390fd5b60016002600083815260200190815260200160002060003373ffffffffffffffffffffffffffffffffffffffff1673ffffffffffffffffffffffffffffffffffffffff16815260200190815260200160002060006101000a81548160ff0219169083151502179055507fef524c298d730e7d5714dbe2fce9d4eca7de755a12628704719170afda39678b81604051610554919061092c565b60405180910390a150565b60015481565b60038054905081106105ac576040517f08c379a00000000000000000000000000000000000000000000000000000000081526004016105a390610ae7565b60405180910390fd5b600381815481106105c0576105bf610b99565b5b906000526020600020906003020160020160009054906101000a900460ff161561061f576040517f08c379a000000000000000000000000000000000000000000000000000000000815260040161061690610c14565b60405180910390fd5b60006003828154811061063557610634610b99565b5b906000526020600020906003020160000160009054906101000a900473ffffffffffffffffffffffffffffffffffffffff1673ffffffffffffffffffffffffffffffffffffffff166003838154811061069157610690610b99565b5b9060005260206000209060030201600101546040516106af90610c65565b60006040518083038185875af1925050503d80600081146106ec576040519150601f19603f3d011682016040523d82523d6000602084013e6106f1565b606091505b5050905080610735576040517f08c379a000000000000000000000000000000000000000000000000000000000815260040161072c90610cc6565b60405180910390fd5b60016003838154811061074b5761074a610b99565b5b906000526020600020906003020160020160006101000a81548160ff0219169083151502179055507f15ed165a284872ea7017f03df402a0cadfbfab588320ffaf83f160c2f82781c7826040516107a2919061092c565b60405180910390a15050565b600080fd5b6000819050919050565b6107c6816107b3565b81146107d157600080fd5b50565b6000813590506107e3816107bd565b92915050565b6000602082840312156107ff576107fe6107ae565b5b600061080d848285016107d4565b91505092915050565b600073ffffffffffffffffffffffffffffffffffffffff82169050919050565b600061084182610816565b9050919050565b61085181610836565b82525050565b600060208201905061086c6000830184610848565b92915050565b61087b81610836565b811461088657600080fd5b50565b60008135905061089881610872565b92915050565b6000602082840312156108b4576108b36107ae565b5b60006108c284828501610889565b91505092915050565b6108d4816107b3565b82525050565b60008115159050919050565b6108ef816108da565b82525050565b600060608201905061090a6000830186610848565b61091760208301856108cb565b61092460408301846108e6565b949350505050565b600060208201905061094160008301846108cb565b92915050565b600082825260208201905092915050565b7f496e76616c696420526563656976657227732041646472657373000000000000600082015250565b600061098e601a83610947565b915061099982610958565b602082019050919050565b600060208201905081810360008301526109bd81610981565b9050919050565b7f5472616e7366657220416d6f756e74204d75737420426520477265617465722060008201527f5468616e20300000000000000000000000000000000000000000000000000000602082015250565b6000610a20602683610947565b9150610a2b826109c4565b604082019050919050565b60006020820190508181036000830152610a4f81610a13565b9050919050565b6000608082019050610a6b60008301876108cb565b610a786020830186610848565b610a856040830185610848565b610a9260608301846108cb565b95945050505050565b7f496e76616c6964205472616e73616374696f6e20496400000000000000000000600082015250565b6000610ad1601683610947565b9150610adc82610a9b565b602082019050919050565b60006020820190508181036000830152610b0081610ac4565b9050919050565b7f5472616e73616374696f6e20497320416c726561647920436f6e6669726d656460008201527f20427920546865204f776e657200000000000000000000000000000000000000602082015250565b6000610b63602d83610947565b9150610b6e82610b07565b604082019050919050565b60006020820190508181036000830152610b9281610b56565b9050919050565b7f4e487b7100000000000000000000000000000000000000000000000000000000600052603260045260246000fd5b7f5472616e73616374696f6e20697320616c726561647920657865637574656400600082015250565b6000610bfe601f83610947565b9150610c0982610bc8565b602082019050919050565b60006020820190508181036000830152610c2d81610bf1565b9050919050565b600081905092915050565b50565b6000610c4f600083610c34565b9150610c5a82610c3f565b600082019050919050565b6000610c7082610c42565b9150819050919050565b7f5472616e73616374696f6e20457865637574696f6e204661696c656400000000600082015250565b6000610cb0601c83610947565b9150610cbb82610c7a565b602082019050919050565b60006020820190508181036000830152610cdf81610ca3565b905091905056fea26469706673582212204c6df67f6b2d7b4133a6af47f8c6b0a815a7a7567a4a4a38a6b474149b54eed964736f6c63430008130033",
  "linkReferences": {},
  "deployedLinkReferences": {}
}